:060000000A128A1100291A
:10000800F000030EF1000C1810208C183220710E2D
:100018008300F00E700E09000B308F00DC308E006C
:100028000C10A00A2008023C03191B280800A20A89
:10003800850AA00105080A3C07300319242808008E
:10004800A201A30A880A0808093C063003192D28CA
:100058000800A201A3018501880108008C10A40AE8
:1000680024080A3C031939280800A60A860AA401AC
:0200780008007E
:100200000921102122212F213D214B21031383128B
:100210000829031383160F140F128F160F170800E7
:10022000031783168801890103138316850186014C
:1002300087018801031383128501860187018801E4
:10024000A80108000313831681128111011581147E
:10025000011403138312F83081000B1108000313FB
:1002600083121013901610169011901010140B306A
:100270008F00DC308E000C10080003138316C3308F
:10028000920003138312921412141217921612166C
:10029000921512150800031383160C148C14031303
:1002A00083120B178B178B160B110C108C10080078
:100400008A018A140F3982073F3406345B344F3433
:1004100066346D347D3407347F346F3477347C3404
:0804200039345E347934713483
:04400E00D420FF3F7C
:00000001FF
