:060000000A128A1100291A
:10000800F000030EF1000B192F200C1812208C1889
:100018003620710E8300F00E700E09000B308F0031
:10002800DC308E000C10A00A2008023C03191D28A1
:100038000800A20A850AA00122080A3C03192528FB
:100048000800A201A30A23080A3C03192C28080067
:10005800A201A3010800612103138312FA30810071
:100068000B1108008C10A40A24080A3C03193D2827
:0A0078000800A60A860AA401080089
:100200000A211121242131213F214D210313831281
:100210005A210829031383160F140F128F160F1774
:1002200008000317831688018901031383168501CB
:1002300006108701C03088000313831285018601F0
:1002400087018801A8010800031383168112811118
:1002500001158114011403138312FA3081000B116C
:1002600008000313831210139016101690119010AB
:1002700010140B308F00DC308E000C1008000313BC
:100280008316C330920003138312921412141217B0
:1002900092161216921512150800031383160C14E9
:1002A0008C14031383120B178B178B160B110C1066
:1002B0008C10080022080022AB0023080022AC00AA
:1002C00008000810881028186A292B08870088144D
:0E02D000281408002C088700081428100800C5
:100400008A018A140F3982073F3406345B344F3433
:1004100066346D347D3407347F346F3477347C3404
:0804200039345E347934713483
:04400E00D420FF3F7C
:00000001FF
