:060000000A128A1100291A
:10000800F000030EF1000C1810208C181F20710E40
:100018008300F00E700E09000B308F00DC308E006C
:100028000C10A00A2008023C03191B280800A20A89
:0E003800850AA0010800A30A2308860A080012
:1002000008210F211C212A213821031383120729D9
:10021000031383160F140F128F160F1708000317FE
:1002200083168801890103138316850106100313C1
:1002300083128501860108000313831210139016A0
:1002400010169011901010140B308F00DC308E00BF
:100250000C10080003138316C3309200031383129B
:1002600092141214121792161216921512150800F3
:10027000031383160C14031383120B178B170C1024
:02028000080074
:04400E00D420FF3F7C
:00000001FF
